{
    "_format": "hh-sol-artifact-1",
    "contractName": "CHHCK",
    "sourceName": "contracts/chhck.sol",
    "abi": [
        {
            "inputs": [],
            "stateMutability": "nonpayable",
            "type": "constructor"
        },
        {
            "anonymous": false,
            "inputs": [
                {
                    "indexed": true,
                    "internalType": "address",
                    "name": "owner",
                    "type": "address"
                },
                {
                    "indexed": true,
                    "internalType": "address",
                    "name": "approved",
                    "type": "address"
                },
                {
                    "indexed": true,
                    "internalType": "uint256",
                    "name": "tokenId",
                    "type": "uint256"
                }
            ],
            "name": "Approval",
            "type": "event"
        },
        {
            "anonymous": false,
            "inputs": [
                {
                    "indexed": true,
                    "internalType": "address",
                    "name": "owner",
                    "type": "address"
                },
                {
                    "indexed": true,
                    "internalType": "address",
                    "name": "operator",
                    "type": "address"
                },
                {
                    "indexed": false,
                    "internalType": "bool",
                    "name": "approved",
                    "type": "bool"
                }
            ],
            "name": "ApprovalForAll",
            "type": "event"
        },
        {
            "anonymous": false,
            "inputs": [
                {
                    "indexed": true,
                    "internalType": "address",
                    "name": "previousOwner",
                    "type": "address"
                },
                {
                    "indexed": true,
                    "internalType": "address",
                    "name": "newOwner",
                    "type": "address"
                }
            ],
            "name": "OwnershipTransferred",
            "type": "event"
        },
        {
            "anonymous": false,
            "inputs": [
                {
                    "indexed": false,
                    "internalType": "address",
                    "name": "account",
                    "type": "address"
                }
            ],
            "name": "Paused",
            "type": "event"
        },
        {
            "anonymous": false,
            "inputs": [
                {
                    "indexed": true,
                    "internalType": "address",
                    "name": "from",
                    "type": "address"
                },
                {
                    "indexed": true,
                    "internalType": "address",
                    "name": "to",
                    "type": "address"
                },
                {
                    "indexed": true,
                    "internalType": "uint256",
                    "name": "tokenId",
                    "type": "uint256"
                }
            ],
            "name": "Transfer",
            "type": "event"
        },
        {
            "anonymous": false,
            "inputs": [
                {
                    "indexed": false,
                    "internalType": "address",
                    "name": "account",
                    "type": "address"
                }
            ],
            "name": "Unpaused",
            "type": "event"
        },
        {
            "inputs": [
                {
                    "internalType": "address",
                    "name": "to",
                    "type": "address"
                },
                {
                    "internalType": "uint256",
                    "name": "tokenId",
                    "type": "uint256"
                }
            ],
            "name": "approve",
            "outputs": [],
            "stateMutability": "nonpayable",
            "type": "function"
        },
        {
            "inputs": [
                {
                    "internalType": "address",
                    "name": "owner",
                    "type": "address"
                }
            ],
            "name": "balanceOf",
            "outputs": [
                {
                    "internalType": "uint256",
                    "name": "",
                    "type": "uint256"
                }
            ],
            "stateMutability": "view",
            "type": "function"
        },
        {
            "inputs": [
                {
                    "internalType": "uint256",
                    "name": "tokenId",
                    "type": "uint256"
                }
            ],
            "name": "getApproved",
            "outputs": [
                {
                    "internalType": "address",
                    "name": "",
                    "type": "address"
                }
            ],
            "stateMutability": "view",
            "type": "function"
        },
        {
            "inputs": [
                {
                    "internalType": "address",
                    "name": "owner",
                    "type": "address"
                },
                {
                    "internalType": "address",
                    "name": "operator",
                    "type": "address"
                }
            ],
            "name": "isApprovedForAll",
            "outputs": [
                {
                    "internalType": "bool",
                    "name": "",
                    "type": "bool"
                }
            ],
            "stateMutability": "view",
            "type": "function"
        },
        {
            "inputs": [],
            "name": "name",
            "outputs": [
                {
                    "internalType": "string",
                    "name": "",
                    "type": "string"
                }
            ],
            "stateMutability": "view",
            "type": "function"
        },
        {
            "inputs": [],
            "name": "owner",
            "outputs": [
                {
                    "internalType": "address",
                    "name": "",
                    "type": "address"
                }
            ],
            "stateMutability": "view",
            "type": "function"
        },
        {
            "inputs": [
                {
                    "internalType": "uint256",
                    "name": "tokenId",
                    "type": "uint256"
                }
            ],
            "name": "ownerOf",
            "outputs": [
                {
                    "internalType": "address",
                    "name": "",
                    "type": "address"
                }
            ],
            "stateMutability": "view",
            "type": "function"
        },
        {
            "inputs": [],
            "name": "pause",
            "outputs": [],
            "stateMutability": "nonpayable",
            "type": "function"
        },
        {
            "inputs": [],
            "name": "paused",
            "outputs": [
                {
                    "internalType": "bool",
                    "name": "",
                    "type": "bool"
                }
            ],
            "stateMutability": "view",
            "type": "function"
        },
        {
            "inputs": [],
            "name": "renounceOwnership",
            "outputs": [],
            "stateMutability": "nonpayable",
            "type": "function"
        },
        {
            "inputs": [
                {
                    "internalType": "address",
                    "name": "to",
                    "type": "address"
                },
                {
                    "internalType": "string",
                    "name": "uri",
                    "type": "string"
                }
            ],
            "name": "safeMint",
            "outputs": [],
            "stateMutability": "nonpayable",
            "type": "function"
        },
        {
            "inputs": [
                {
                    "internalType": "address",
                    "name": "from",
                    "type": "address"
                },
                {
                    "internalType": "address",
                    "name": "to",
                    "type": "address"
                },
                {
                    "internalType": "uint256",
                    "name": "tokenId",
                    "type": "uint256"
                }
            ],
            "name": "safeTransferFrom",
            "outputs": [],
            "stateMutability": "nonpayable",
            "type": "function"
        },
        {
            "inputs": [
                {
                    "internalType": "address",
                    "name": "from",
                    "type": "address"
                },
                {
                    "internalType": "address",
                    "name": "to",
                    "type": "address"
                },
                {
                    "internalType": "uint256",
                    "name": "tokenId",
                    "type": "uint256"
                },
                {
                    "internalType": "bytes",
                    "name": "_data",
                    "type": "bytes"
                }
            ],
            "name": "safeTransferFrom",
            "outputs": [],
            "stateMutability": "nonpayable",
            "type": "function"
        },
        {
            "inputs": [
                {
                    "internalType": "address",
                    "name": "operator",
                    "type": "address"
                },
                {
                    "internalType": "bool",
                    "name": "approved",
                    "type": "bool"
                }
            ],
            "name": "setApprovalForAll",
            "outputs": [],
            "stateMutability": "nonpayable",
            "type": "function"
        },
        {
            "inputs": [
                {
                    "internalType": "bytes4",
                    "name": "interfaceId",
                    "type": "bytes4"
                }
            ],
            "name": "supportsInterface",
            "outputs": [
                {
                    "internalType": "bool",
                    "name": "",
                    "type": "bool"
                }
            ],
            "stateMutability": "view",
            "type": "function"
        },
        {
            "inputs": [],
            "name": "symbol",
            "outputs": [
                {
                    "internalType": "string",
                    "name": "",
                    "type": "string"
                }
            ],
            "stateMutability": "view",
            "type": "function"
        },
        {
            "inputs": [
                {
                    "internalType": "uint256",
                    "name": "index",
                    "type": "uint256"
                }
            ],
            "name": "tokenByIndex",
            "outputs": [
                {
                    "internalType": "uint256",
                    "name": "",
                    "type": "uint256"
                }
            ],
            "stateMutability": "view",
            "type": "function"
        },
        {
            "inputs": [
                {
                    "internalType": "address",
                    "name": "owner",
                    "type": "address"
                },
                {
                    "internalType": "uint256",
                    "name": "index",
                    "type": "uint256"
                }
            ],
            "name": "tokenOfOwnerByIndex",
            "outputs": [
                {
                    "internalType": "uint256",
                    "name": "",
                    "type": "uint256"
                }
            ],
            "stateMutability": "view",
            "type": "function"
        },
        {
            "inputs": [
                {
                    "internalType": "uint256",
                    "name": "tokenId",
                    "type": "uint256"
                }
            ],
            "name": "tokenURI",
            "outputs": [
                {
                    "internalType": "string",
                    "name": "",
                    "type": "string"
                }
            ],
            "stateMutability": "view",
            "type": "function"
        },
        {
            "inputs": [],
            "name": "totalSupply",
            "outputs": [
                {
                    "internalType": "uint256",
                    "name": "",
                    "type": "uint256"
                }
            ],
            "stateMutability": "view",
            "type": "function"
        },
        {
            "inputs": [
                {
                    "internalType": "address",
                    "name": "from",
                    "type": "address"
                },
                {
                    "internalType": "address",
                    "name": "to",
                    "type": "address"
                },
                {
                    "internalType": "uint256",
                    "name": "tokenId",
                    "type": "uint256"
                }
            ],
            "name": "transferFrom",
            "outputs": [],
            "stateMutability": "nonpayable",
            "type": "function"
        },
        {
            "inputs": [
                {
                    "internalType": "address",
                    "name": "newOwner",
                    "type": "address"
                }
            ],
            "name": "transferOwnership",
            "outputs": [],
            "stateMutability": "nonpayable",
            "type": "function"
        },
        {
            "inputs": [],
            "name": "unpause",
            "outputs": [],
            "stateMutability": "nonpayable",
            "type": "function"
        }
    ],
    "bytecode": "0x60806040523480156200001157600080fd5b506040518060400160405280600581526020017f434848434b0000000000000000000000000000000000000000000000000000008152506040518060400160405280600581526020017f434848434b000000000000000000000000000000000000000000000000000000815250816000908051906020019062000096929190620001c1565b508060019080519060200190620000af929190620001c1565b5050506000600b60006101000a81548160ff021916908315150217905550620000ed620000e1620000f360201b60201c565b620000fb60201b60201c565b620002d6565b600033905090565b6000600b60019054906101000a900473ffffffffffffffffffffffffffffffffffffffff16905081600b60016101000a81548173ffffffffffffffffffffffffffffffffffffffff021916908373ffffffffffffffffffffffffffffffffffffffff1602179055508173ffffffffffffffffffffffffffffffffffffffff168173ffffffffffffffffffffffffffffffffffffffff167f8be0079c531659141344cd1fd0a4f28419497f9722a3daafe3b4186f6b6457e060405160405180910390a35050565b828054620001cf9062000271565b90600052602060002090601f016020900481019282620001f357600085556200023f565b82601f106200020e57805160ff19168380011785556200023f565b828001600101855582156200023f579182015b828111156200023e57825182559160200191906001019062000221565b5b5090506200024e919062000252565b5090565b5b808211156200026d57600081600090555060010162000253565b5090565b600060028204905060018216806200028a57607f821691505b60208210811415620002a157620002a0620002a7565b5b50919050565b7f4e487b7100000000000000000000000000000000000000000000000000000000600052602260045260246000fd5b613c6880620002e66000396000f3fe608060405234801561001057600080fd5b506004361061014d5760003560e01c80636352211e116100c3578063a22cb4651161007c578063a22cb4651461037a578063b88d4fde14610396578063c87b56dd146103b2578063d204c45e146103e2578063e985e9c5146103fe578063f2fde38b1461042e5761014d565b80636352211e146102ca57806370a08231146102fa578063715018a61461032a5780638456cb59146103345780638da5cb5b1461033e57806395d89b411461035c5761014d565b806323b872dd1161011557806323b872dd1461020a5780632f745c59146102265780633f4ba83a1461025657806342842e0e146102605780634f6ccce71461027c5780635c975abb146102ac5761014d565b806301ffc9a71461015257806306fdde0314610182578063081812fc146101a0578063095ea7b3146101d057806318160ddd146101ec575b600080fd5b61016c60048036038101906101679190612a1b565b61044a565b6040516101799190612ef3565b60405180910390f35b61018a61045c565b6040516101979190612f0e565b60405180910390f35b6101ba60048036038101906101b59190612a6d565b6104ee565b6040516101c79190612e8c565b60405180910390f35b6101ea60048036038101906101e591906129df565b610573565b005b6101f461068b565b60405161020191906131f0565b60405180910390f35b610224600480360381019061021f9190612885565b610698565b005b610240600480360381019061023b91906129df565b6106f8565b60405161024d91906131f0565b60405180910390f35b61025e61079d565b005b61027a60048036038101906102759190612885565b610823565b005b61029660048036038101906102919190612a6d565b610843565b6040516102a391906131f0565b60405180910390f35b6102b46108da565b6040516102c19190612ef3565b60405180910390f35b6102e460048036038101906102df9190612a6d565b6108f1565b6040516102f19190612e8c565b60405180910390f35b610314600480360381019061030f9190612820565b6109a3565b60405161032191906131f0565b60405180910390f35b610332610a5b565b005b61033c610ae3565b005b610346610b69565b6040516103539190612e8c565b60405180910390f35b610364610b93565b6040516103719190612f0e565b60405180910390f35b610394600480360381019061038f919061294f565b610c25565b005b6103b060048036038101906103ab91906128d4565b610c3b565b005b6103cc60048036038101906103c79190612a6d565b610c9d565b6040516103d99190612f0e565b60405180910390f35b6103fc60048036038101906103f7919061298b565b610caf565b005b61041860048036038101906104139190612849565b610d5c565b6040516104259190612ef3565b60405180910390f35b61044860048036038101906104439190612820565b610df0565b005b600061045582610ee8565b9050919050565b60606000805461046b90613446565b80601f016020809104026020016040519081016040528092919081815260200182805461049790613446565b80156104e45780601f106104b9576101008083540402835291602001916104e4565b820191906000526020600020905b8154815290600101906020018083116104c757829003601f168201915b5050505050905090565b60006104f982610f62565b610538576040517f08c379a000000000000000000000000000000000000000000000000000000000815260040161052f90613130565b60405180910390fd5b6004600083815260200190815260200160002060009054906101000a900473ffffffffffffffffffffffffffffffffffffffff169050919050565b600061057e826108f1565b90508073ffffffffffffffffffffffffffffffffffffffff168373ffffffffffffffffffffffffffffffffffffffff1614156105ef576040517f08c379a00000000000000000000000000000000000000000000000000000000081526004016105e690613190565b60405180910390fd5b8073ffffffffffffffffffffffffffffffffffffffff1661060e610fce565b73ffffffffffffffffffffffffffffffffffffffff16148061063d575061063c81610637610fce565b610d5c565b5b61067c576040517f08c379a000000000000000000000000000000000000000000000000000000000815260040161067390613070565b60405180910390fd5b6106868383610fd6565b505050565b6000600880549050905090565b6106a96106a3610fce565b8261108f565b6106e8576040517f08c379a00000000000000000000000000000000000000000000000000000000081526004016106df906131b0565b60405180910390fd5b6106f383838361116d565b505050565b6000610703836109a3565b8210610744576040517f08c379a000000000000000000000000000000000000000000000000000000000815260040161073b90612f50565b60405180910390fd5b600660008473ffffffffffffffffffffffffffffffffffffffff1673ffffffffffffffffffffffffffffffffffffffff168152602001908152602001600020600083815260200190815260200160002054905092915050565b6107a5610fce565b73ffffffffffffffffffffffffffffffffffffffff166107c3610b69565b73ffffffffffffffffffffffffffffffffffffffff1614610819576040517f08c379a000000000000000000000000000000000000000000000000000000000815260040161081090613150565b60405180910390fd5b6108216113d4565b565b61083e83838360405180602001604052806000815250610c3b565b505050565b600061084d61068b565b821061088e576040517f08c379a0000000000000000000000000000000000000000000000000000000008152600401610885906131d0565b60405180910390fd5b600882815481106108c8577f4e487b7100000000000000000000000000000000000000000000000000000000600052603260045260246000fd5b90600052602060002001549050919050565b6000600b60009054906101000a900460ff16905090565b6000806002600084815260200190815260200160002060009054906101000a900473ffffffffffffffffffffffffffffffffffffffff169050600073ffffffffffffffffffffffffffffffffffffffff168173ffffffffffffffffffffffffffffffffffffffff16141561099a576040517f08c379a0000000000000000000000000000000000000000000000000000000008152600401610991906130b0565b60405180910390fd5b80915050919050565b60008073ffffffffffffffffffffffffffffffffffffffff168273ffffffffffffffffffffffffffffffffffffffff161415610a14576040517f08c379a0000000000000000000000000000000000000000000000000000000008152600401610a0b90613090565b60405180910390fd5b600360008373ffffffffffffffffffffffffffffffffffffffff1673ffffffffffffffffffffffffffffffffffffffff168152602001908152602001600020549050919050565b610a63610fce565b73ffffffffffffffffffffffffffffffffffffffff16610a81610b69565b73ffffffffffffffffffffffffffffffffffffffff1614610ad7576040517f08c379a0000000000000000000000000000000000000000000000000000000008152600401610ace90613150565b60405180910390fd5b610ae16000611476565b565b610aeb610fce565b73ffffffffffffffffffffffffffffffffffffffff16610b09610b69565b73ffffffffffffffffffffffffffffffffffffffff1614610b5f576040517f08c379a0000000000000000000000000000000000000000000000000000000008152600401610b5690613150565b60405180910390fd5b610b6761153c565b565b6000600b60019054906101000a900473ffffffffffffffffffffffffffffffffffffffff16905090565b606060018054610ba290613446565b80601f0160208091040260200160405190810160405280929190818152602001828054610bce90613446565b8015610c1b5780601f10610bf057610100808354040283529160200191610c1b565b820191906000526020600020905b815481529060010190602001808311610bfe57829003601f168201915b5050505050905090565b610c37610c30610fce565b83836115df565b5050565b610c4c610c46610fce565b8361108f565b610c8b576040517f08c379a0000000000000000000000000000000000000000000000000000000008152600401610c82906131b0565b60405180910390fd5b610c978484848461174c565b50505050565b6060610ca8826117a8565b9050919050565b610cb7610fce565b73ffffffffffffffffffffffffffffffffffffffff16610cd5610b69565b73ffffffffffffffffffffffffffffffffffffffff1614610d2b576040517f08c379a0000000000000000000000000000000000000000000000000000000008152600401610d2290613150565b60405180910390fd5b6000610d37600c6118fa565b9050610d43600c611908565b610d4d838261191e565b610d57818361193c565b505050565b6000600560008473ffffffffffffffffffffffffffffffffffffffff1673ffffffffffffffffffffffffffffffffffffffff16815260200190815260200160002060008373ffffffffffffffffffffffffffffffffffffffff1673ffffffffffffffffffffffffffffffffffffffff16815260200190815260200160002060009054906101000a900460ff16905092915050565b610df8610fce565b73ffffffffffffffffffffffffffffffffffffffff16610e16610b69565b73ffffffffffffffffffffffffffffffffffffffff1614610e6c576040517f08c379a0000000000000000000000000000000000000000000000000000000008152600401610e6390613150565b60405180910390fd5b600073ffffffffffffffffffffffffffffffffffffffff168173ffffffffffffffffffffffffffffffffffffffff161415610edc576040517f08c379a0000000000000000000000000000000000000000000000000000000008152600401610ed390612f90565b60405180910390fd5b610ee581611476565b50565b60007f780e9d63000000000000000000000000000000000000000000000000000000007bffffffffffffffffffffffffffffffffffffffffffffffffffffffff1916827bffffffffffffffffffffffffffffffffffffffffffffffffffffffff19161480610f5b5750610f5a826119b0565b5b9050919050565b60008073ffffffffffffffffffffffffffffffffffffffff166002600084815260200190815260200160002060009054906101000a900473ffffffffffffffffffffffffffffffffffffffff1673ffffffffffffffffffffffffffffffffffffffff1614159050919050565b600033905090565b816004600083815260200190815260200160002060006101000a81548173ffffffffffffffffffffffffffffffffffffffff021916908373ffffffffffffffffffffffffffffffffffffffff160217905550808273ffffffffffffffffffffffffffffffffffffffff16611049836108f1565b73ffffffffffffffffffffffffffffffffffffffff167f8c5be1e5ebec7d5bd14f71427d1e84f3dd0314c0f7b2291e5b200ac8c7c3b92560405160405180910390a45050565b600061109a82610f62565b6110d9576040517f08c379a00000000000000000000000000000000000000000000000000000000081526004016110d090613030565b60405180910390fd5b60006110e4836108f1565b90508073ffffffffffffffffffffffffffffffffffffffff168473ffffffffffffffffffffffffffffffffffffffff16148061112657506111258185610d5c565b5b8061116457508373ffffffffffffffffffffffffffffffffffffffff1661114c846104ee565b73ffffffffffffffffffffffffffffffffffffffff16145b91505092915050565b8273ffffffffffffffffffffffffffffffffffffffff1661118d826108f1565b73ffffffffffffffffffffffffffffffffffffffff16146111e3576040517f08c379a00000000000000000000000000000000000000000000000000000000081526004016111da90612fb0565b60405180910390fd5b600073ffffffffffffffffffffffffffffffffffffffff168273ffffffffffffffffffffffffffffffffffffffff161415611253576040517f08c379a000000000000000000000000000000000000000000000000000000000815260040161124a90612ff0565b60405180910390fd5b61125e838383611a92565b611269600082610fd6565b6001600360008573ffffffffffffffffffffffffffffffffffffffff1673ffffffffffffffffffffffffffffffffffffffff16815260200190815260200160002060008282546112b9919061335c565b925050819055506001600360008473ffffffffffffffffffffffffffffffffffffffff1673ffffffffffffffffffffffffffffffffffffffff168152602001908152602001600020600082825461131091906132d5565b92505081905550816002600083815260200190815260200160002060006101000a81548173ffffffffffffffffffffffffffffffffffffffff021916908373ffffffffffffffffffffffffffffffffffffffff160217905550808273ffffffffffffffffffffffffffffffffffffffff168473ffffffffffffffffffffffffffffffffffffffff167fddf252ad1be2c89b69c2b068fc378daa952ba7f163c4a11628f55a4df523b3ef60405160405180910390a46113cf838383611aea565b505050565b6113dc6108da565b61141b576040517f08c379a000000000000000000000000000000000000000000000000000000000815260040161141290612f30565b60405180910390fd5b6000600b60006101000a81548160ff0219169083151502179055507f5db9ee0a495bf2e6ff9c91a7834c1ba4fdd244a5e8aa4e537bd38aeae4b073aa61145f610fce565b60405161146c9190612e8c565b60405180910390a1565b6000600b60019054906101000a900473ffffffffffffffffffffffffffffffffffffffff16905081600b60016101000a81548173ffffffffffffffffffffffffffffffffffffffff021916908373ffffffffffffffffffffffffffffffffffffffff1602179055508173ffffffffffffffffffffffffffffffffffffffff168173ffffffffffffffffffffffffffffffffffffffff167f8be0079c531659141344cd1fd0a4f28419497f9722a3daafe3b4186f6b6457e060405160405180910390a35050565b6115446108da565b15611584576040517f08c379a000000000000000000000000000000000000000000000000000000000815260040161157b90613050565b60405180910390fd5b6001600b60006101000a81548160ff0219169083151502179055507f62e78cea01bee320cd4e420270b5ea74000d11b0c9f74754ebdbfc544b05a2586115c8610fce565b6040516115d59190612e8c565b60405180910390a1565b8173ffffffffffffffffffffffffffffffffffffffff168373ffffffffffffffffffffffffffffffffffffffff16141561164e576040517f08c379a000000000000000000000000000000000000000000000000000000000815260040161164590613010565b60405180910390fd5b80600560008573ffffffffffffffffffffffffffffffffffffffff1673ffffffffffffffffffffffffffffffffffffffff16815260200190815260200160002060008473ffffffffffffffffffffffffffffffffffffffff1673ffffffffffffffffffffffffffffffffffffffff16815260200190815260200160002060006101000a81548160ff0219169083151502179055508173ffffffffffffffffffffffffffffffffffffffff168373ffffffffffffffffffffffffffffffffffffffff167f17307eab39ab6107e8899845ad3d59bd9653f200f220920489ca2b5937696c318360405161173f9190612ef3565b60405180910390a3505050565b61175784848461116d565b61176384848484611aef565b6117a2576040517f08c379a000000000000000000000000000000000000000000000000000000000815260040161179990612f70565b60405180910390fd5b50505050565b60606117b382610f62565b6117f2576040517f08c379a00000000000000000000000000000000000000000000000000000000081526004016117e990613110565b60405180910390fd5b6000600a6000848152602001908152602001600020805461181290613446565b80601f016020809104026020016040519081016040528092919081815260200182805461183e90613446565b801561188b5780601f106118605761010080835404028352916020019161188b565b820191906000526020600020905b81548152906001019060200180831161186e57829003601f168201915b50505050509050600061189c611c86565b90506000815114156118b25781925050506118f5565b6000825111156118e75780826040516020016118cf929190612e68565b604051602081830303815290604052925050506118f5565b6118f084611c9d565b925050505b919050565b600081600001549050919050565b6001816000016000828254019250508190555050565b611938828260405180602001604052806000815250611d44565b5050565b61194582610f62565b611984576040517f08c379a000000000000000000000000000000000000000000000000000000000815260040161197b906130d0565b60405180910390fd5b80600a600084815260200190815260200160002090805190602001906119ab929190612644565b505050565b60007f80ac58cd000000000000000000000000000000000000000000000000000000007bffffffffffffffffffffffffffffffffffffffffffffffffffffffff1916827bffffffffffffffffffffffffffffffffffffffffffffffffffffffff19161480611a7b57507f5b5e139f000000000000000000000000000000000000000000000000000000007bffffffffffffffffffffffffffffffffffffffffffffffffffffffff1916827bffffffffffffffffffffffffffffffffffffffffffffffffffffffff1916145b80611a8b5750611a8a82611d9f565b5b9050919050565b611a9a6108da565b15611ada576040517f08c379a0000000000000000000000000000000000000000000000000000000008152600401611ad190613050565b60405180910390fd5b611ae5838383611e09565b505050565b505050565b6000611b108473ffffffffffffffffffffffffffffffffffffffff16611f1d565b15611c79578373ffffffffffffffffffffffffffffffffffffffff1663150b7a02611b39610fce565b8786866040518563ffffffff1660e01b8152600401611b5b9493929190612ea7565b602060405180830381600087803b158015611b7557600080fd5b505af1925050508015611ba657506040513d601f19601f82011682018060405250810190611ba39190612a44565b60015b611c29573d8060008114611bd6576040519150601f19603f3d011682016040523d82523d6000602084013e611bdb565b606091505b50600081511415611c21576040517f08c379a0000000000000000000000000000000000000000000000000000000008152600401611c1890612f70565b60405180910390fd5b805181602001fd5b63150b7a0260e01b7bffffffffffffffffffffffffffffffffffffffffffffffffffffffff1916817bffffffffffffffffffffffffffffffffffffffffffffffffffffffff191614915050611c7e565b600190505b949350505050565b606060405180602001604052806000815250905090565b6060611ca882610f62565b611ce7576040517f08c379a0000000000000000000000000000000000000000000000000000000008152600401611cde90613170565b60405180910390fd5b6000611cf1611c86565b90506000815111611d115760405180602001604052806000815250611d3c565b80611d1b84611f40565b604051602001611d2c929190612e68565b6040516020818303038152906040525b915050919050565b611d4e83836120ed565b611d5b6000848484611aef565b611d9a576040517f08c379a0000000000000000000000000000000000000000000000000000000008152600401611d9190612f70565b60405180910390fd5b505050565b60007f01ffc9a7000000000000000000000000000000000000000000000000000000007bffffffffffffffffffffffffffffffffffffffffffffffffffffffff1916827bffffffffffffffffffffffffffffffffffffffffffffffffffffffff1916149050919050565b611e148383836122c7565b600073ffffffffffffffffffffffffffffffffffffffff168373ffffffffffffffffffffffffffffffffffffffff161415611e5757611e52816122cc565b611e96565b8173ffffffffffffffffffffffffffffffffffffffff168373ffffffffffffffffffffffffffffffffffffffff1614611e9557611e948382612315565b5b5b600073ffffffffffffffffffffffffffffffffffffffff168273ffffffffffffffffffffffffffffffffffffffff161415611ed957611ed481612482565b611f18565b8273ffffffffffffffffffffffffffffffffffffffff168273ffffffffffffffffffffffffffffffffffffffff1614611f1757611f1682826125c5565b5b5b505050565b6000808273ffffffffffffffffffffffffffffffffffffffff163b119050919050565b60606000821415611f88576040518060400160405280600181526020017f300000000000000000000000000000000000000000000000000000000000000081525090506120e8565b600082905060005b60008214611fba578080611fa3906134a9565b915050600a82611fb3919061332b565b9150611f90565b60008167ffffffffffffffff811115611ffc577f4e487b7100000000000000000000000000000000000000000000000000000000600052604160045260246000fd5b6040519080825280601f01601f19166020018201604052801561202e5781602001600182028036833780820191505090505b5090505b600085146120e157600182612047919061335c565b9150600a8561205691906134f2565b603061206291906132d5565b60f81b81838151811061209e577f4e487b7100000000000000000000000000000000000000000000000000000000600052603260045260246000fd5b60200101907effffffffffffffffffffffffffffffffffffffffffffffffffffffffffffff1916908160001a905350600a856120da919061332b565b9450612032565b8093505050505b919050565b600073ffffffffffffffffffffffffffffffffffffffff168273ffffffffffffffffffffffffffffffffffffffff16141561215d576040517f08c379a0000000000000000000000000000000000000000000000000000000008152600401612154906130f0565b60405180910390fd5b61216681610f62565b156121a6576040517f08c379a000000000000000000000000000000000000000000000000000000000815260040161219d90612fd0565b60405180910390fd5b6121b260008383611a92565b6001600360008473ffffffffffffffffffffffffffffffffffffffff1673ffffffffffffffffffffffffffffffffffffffff168152602001908152602001600020600082825461220291906132d5565b92505081905550816002600083815260200190815260200160002060006101000a81548173ffffffffffffffffffffffffffffffffffffffff021916908373ffffffffffffffffffffffffffffffffffffffff160217905550808273ffffffffffffffffffffffffffffffffffffffff16600073ffffffffffffffffffffffffffffffffffffffff167fddf252ad1be2c89b69c2b068fc378daa952ba7f163c4a11628f55a4df523b3ef60405160405180910390a46122c360008383611aea565b5050565b505050565b6008805490506009600083815260200190815260200160002081905550600881908060018154018082558091505060019003906000526020600020016000909190919091505550565b60006001612322846109a3565b61232c919061335c565b9050600060076000848152602001908152602001600020549050818114612411576000600660008673ffffffffffffffffffffffffffffffffffffffff1673ffffffffffffffffffffffffffffffffffffffff168152602001908152602001600020600084815260200190815260200160002054905080600660008773ffffffffffffffffffffffffffffffffffffffff1673ffffffffffffffffffffffffffffffffffffffff168152602001908152602001600020600084815260200190815260200160002081905550816007600083815260200190815260200160002081905550505b6007600084815260200190815260200160002060009055600660008573ffffffffffffffffffffffffffffffffffffffff1673ffffffffffffffffffffffffffffffffffffffff16815260200190815260200160002060008381526020019081526020016000206000905550505050565b60006001600880549050612496919061335c565b90506000600960008481526020019081526020016000205490506000600883815481106124ec577f4e487b7100000000000000000000000000000000000000000000000000000000600052603260045260246000fd5b906000526020600020015490508060088381548110612534577f4e487b7100000000000000000000000000000000000000000000000000000000600052603260045260246000fd5b9060005260206000200181905550816009600083815260200190815260200160002081905550600960008581526020019081526020016000206000905560088054806125a9577f4e487b7100000000000000000000000000000000000000000000000000000000600052603160045260246000fd5b6001900381819060005260206000200160009055905550505050565b60006125d0836109a3565b905081600660008573ffffffffffffffffffffffffffffffffffffffff1673ffffffffffffffffffffffffffffffffffffffff168152602001908152602001600020600083815260200190815260200160002081905550806007600084815260200190815260200160002081905550505050565b82805461265090613446565b90600052602060002090601f01602090048101928261267257600085556126b9565b82601f1061268b57805160ff19168380011785556126b9565b828001600101855582156126b9579182015b828111156126b857825182559160200191906001019061269d565b5b5090506126c691906126ca565b5090565b5b808211156126e35760008160009055506001016126cb565b5090565b60006126fa6126f584613230565b61320b565b90508281526020810184848401111561271257600080fd5b61271d848285613404565b509392505050565b600061273861273384613261565b61320b565b90508281526020810184848401111561275057600080fd5b61275b848285613404565b509392505050565b60008135905061277281613bd6565b92915050565b60008135905061278781613bed565b92915050565b60008135905061279c81613c04565b92915050565b6000815190506127b181613c04565b92915050565b600082601f8301126127c857600080fd5b81356127d88482602086016126e7565b91505092915050565b600082601f8301126127f257600080fd5b8135612802848260208601612725565b91505092915050565b60008135905061281a81613c1b565b92915050565b60006020828403121561283257600080fd5b600061284084828501612763565b91505092915050565b6000806040838503121561285c57600080fd5b600061286a85828601612763565b925050602061287b85828601612763565b9150509250929050565b60008060006060848603121561289a57600080fd5b60006128a886828701612763565b93505060206128b986828701612763565b92505060406128ca8682870161280b565b9150509250925092565b600080600080608085870312156128ea57600080fd5b60006128f887828801612763565b945050602061290987828801612763565b935050604061291a8782880161280b565b925050606085013567ffffffffffffffff81111561293757600080fd5b612943878288016127b7565b91505092959194509250565b6000806040838503121561296257600080fd5b600061297085828601612763565b925050602061298185828601612778565b9150509250929050565b6000806040838503121561299e57600080fd5b60006129ac85828601612763565b925050602083013567ffffffffffffffff8111156129c957600080fd5b6129d5858286016127e1565b9150509250929050565b600080604083850312156129f257600080fd5b6000612a0085828601612763565b9250506020612a118582860161280b565b9150509250929050565b600060208284031215612a2d57600080fd5b6000612a3b8482850161278d565b91505092915050565b600060208284031215612a5657600080fd5b6000612a64848285016127a2565b91505092915050565b600060208284031215612a7f57600080fd5b6000612a8d8482850161280b565b91505092915050565b612a9f81613390565b82525050565b612aae816133a2565b82525050565b6000612abf82613292565b612ac981856132a8565b9350612ad9818560208601613413565b612ae2816135df565b840191505092915050565b6000612af88261329d565b612b0281856132b9565b9350612b12818560208601613413565b612b1b816135df565b840191505092915050565b6000612b318261329d565b612b3b81856132ca565b9350612b4b818560208601613413565b80840191505092915050565b6000612b646014836132b9565b9150612b6f826135f0565b602082019050919050565b6000612b87602b836132b9565b9150612b9282613619565b604082019050919050565b6000612baa6032836132b9565b9150612bb582613668565b604082019050919050565b6000612bcd6026836132b9565b9150612bd8826136b7565b604082019050919050565b6000612bf06025836132b9565b9150612bfb82613706565b604082019050919050565b6000612c13601c836132b9565b9150612c1e82613755565b602082019050919050565b6000612c366024836132b9565b9150612c418261377e565b604082019050919050565b6000612c596019836132b9565b9150612c64826137cd565b602082019050919050565b6000612c7c602c836132b9565b9150612c87826137f6565b604082019050919050565b6000612c9f6010836132b9565b9150612caa82613845565b602082019050919050565b6000612cc26038836132b9565b9150612ccd8261386e565b604082019050919050565b6000612ce5602a836132b9565b9150612cf0826138bd565b604082019050919050565b6000612d086029836132b9565b9150612d138261390c565b604082019050919050565b6000612d2b602e836132b9565b9150612d368261395b565b604082019050919050565b6000612d4e6020836132b9565b9150612d59826139aa565b602082019050919050565b6000612d716031836132b9565b9150612d7c826139d3565b604082019050919050565b6000612d94602c836132b9565b9150612d9f82613a22565b604082019050919050565b6000612db76020836132b9565b9150612dc282613a71565b602082019050919050565b6000612dda602f836132b9565b9150612de582613a9a565b604082019050919050565b6000612dfd6021836132b9565b9150612e0882613ae9565b604082019050919050565b6000612e206031836132b9565b9150612e2b82613b38565b604082019050919050565b6000612e43602c836132b9565b9150612e4e82613b87565b604082019050919050565b612e62816133fa565b82525050565b6000612e748285612b26565b9150612e808284612b26565b91508190509392505050565b6000602082019050612ea16000830184612a96565b92915050565b6000608082019050612ebc6000830187612a96565b612ec96020830186612a96565b612ed66040830185612e59565b8181036060830152612ee88184612ab4565b905095945050505050565b6000602082019050612f086000830184612aa5565b92915050565b60006020820190508181036000830152612f288184612aed565b905092915050565b60006020820190508181036000830152612f4981612b57565b9050919050565b60006020820190508181036000830152612f6981612b7a565b9050919050565b60006020820190508181036000830152612f8981612b9d565b9050919050565b60006020820190508181036000830152612fa981612bc0565b9050919050565b60006020820190508181036000830152612fc981612be3565b9050919050565b60006020820190508181036000830152612fe981612c06565b9050919050565b6000602082019050818103600083015261300981612c29565b9050919050565b6000602082019050818103600083015261302981612c4c565b9050919050565b6000602082019050818103600083015261304981612c6f565b9050919050565b6000602082019050818103600083015261306981612c92565b9050919050565b6000602082019050818103600083015261308981612cb5565b9050919050565b600060208201905081810360008301526130a981612cd8565b9050919050565b600060208201905081810360008301526130c981612cfb565b9050919050565b600060208201905081810360008301526130e981612d1e565b9050919050565b6000602082019050818103600083015261310981612d41565b9050919050565b6000602082019050818103600083015261312981612d64565b9050919050565b6000602082019050818103600083015261314981612d87565b9050919050565b6000602082019050818103600083015261316981612daa565b9050919050565b6000602082019050818103600083015261318981612dcd565b9050919050565b600060208201905081810360008301526131a981612df0565b9050919050565b600060208201905081810360008301526131c981612e13565b9050919050565b600060208201905081810360008301526131e981612e36565b9050919050565b60006020820190506132056000830184612e59565b92915050565b6000613215613226565b90506132218282613478565b919050565b6000604051905090565b600067ffffffffffffffff82111561324b5761324a6135b0565b5b613254826135df565b9050602081019050919050565b600067ffffffffffffffff82111561327c5761327b6135b0565b5b613285826135df565b9050602081019050919050565b600081519050919050565b600081519050919050565b600082825260208201905092915050565b600082825260208201905092915050565b600081905092915050565b60006132e0826133fa565b91506132eb836133fa565b9250827fffffffffffffffffffffffffffffffffffffffffffffffffffffffffffffffff038211156133205761331f613523565b5b828201905092915050565b6000613336826133fa565b9150613341836133fa565b92508261335157613350613552565b5b828204905092915050565b6000613367826133fa565b9150613372836133fa565b92508282101561338557613384613523565b5b828203905092915050565b600061339b826133da565b9050919050565b60008115159050919050565b60007fffffffff0000000000000000000000000000000000000000000000000000000082169050919050565b600073ffffffffffffffffffffffffffffffffffffffff82169050919050565b6000819050919050565b82818337600083830152505050565b60005b83811015613431578082015181840152602081019050613416565b83811115613440576000848401525b50505050565b6000600282049050600182168061345e57607f821691505b6020821081141561347257613471613581565b5b50919050565b613481826135df565b810181811067ffffffffffffffff821117156134a05761349f6135b0565b5b80604052505050565b60006134b4826133fa565b91507fffffffffffffffffffffffffffffffffffffffffffffffffffffffffffffffff8214156134e7576134e6613523565b5b600182019050919050565b60006134fd826133fa565b9150613508836133fa565b92508261351857613517613552565b5b828206905092915050565b7f4e487b7100000000000000000000000000000000000000000000000000000000600052601160045260246000fd5b7f4e487b7100000000000000000000000000000000000000000000000000000000600052601260045260246000fd5b7f4e487b7100000000000000000000000000000000000000000000000000000000600052602260045260246000fd5b7f4e487b7100000000000000000000000000000000000000000000000000000000600052604160045260246000fd5b6000601f19601f8301169050919050565b7f5061757361626c653a206e6f7420706175736564000000000000000000000000600082015250565b7f455243373231456e756d657261626c653a206f776e657220696e646578206f7560008201527f74206f6620626f756e6473000000000000000000000000000000000000000000602082015250565b7f4552433732313a207472616e7366657220746f206e6f6e20455243373231526560008201527f63656976657220696d706c656d656e7465720000000000000000000000000000602082015250565b7f4f776e61626c653a206e6577206f776e657220697320746865207a65726f206160008201527f6464726573730000000000000000000000000000000000000000000000000000602082015250565b7f4552433732313a207472616e736665722066726f6d20696e636f72726563742060008201527f6f776e6572000000000000000000000000000000000000000000000000000000602082015250565b7f4552433732313a20746f6b656e20616c7265616479206d696e74656400000000600082015250565b7f4552433732313a207472616e7366657220746f20746865207a65726f2061646460008201527f7265737300000000000000000000000000000000000000000000000000000000602082015250565b7f4552433732313a20617070726f766520746f2063616c6c657200000000000000600082015250565b7f4552433732313a206f70657261746f7220717565727920666f72206e6f6e657860008201527f697374656e7420746f6b656e0000000000000000000000000000000000000000602082015250565b7f5061757361626c653a2070617573656400000000000000000000000000000000600082015250565b7f4552433732313a20617070726f76652063616c6c6572206973206e6f74206f7760008201527f6e6572206e6f7220617070726f76656420666f7220616c6c0000000000000000602082015250565b7f4552433732313a2062616c616e636520717565727920666f7220746865207a6560008201527f726f206164647265737300000000000000000000000000000000000000000000602082015250565b7f4552433732313a206f776e657220717565727920666f72206e6f6e657869737460008201527f656e7420746f6b656e0000000000000000000000000000000000000000000000602082015250565b7f45524337323155524953746f726167653a2055524920736574206f66206e6f6e60008201527f6578697374656e7420746f6b656e000000000000000000000000000000000000602082015250565b7f4552433732313a206d696e7420746f20746865207a65726f2061646472657373600082015250565b7f45524337323155524953746f726167653a2055524920717565727920666f722060008201527f6e6f6e6578697374656e7420746f6b656e000000000000000000000000000000602082015250565b7f4552433732313a20617070726f76656420717565727920666f72206e6f6e657860008201527f697374656e7420746f6b656e0000000000000000000000000000000000000000602082015250565b7f4f776e61626c653a2063616c6c6572206973206e6f7420746865206f776e6572600082015250565b7f4552433732314d657461646174613a2055524920717565727920666f72206e6f60008201527f6e6578697374656e7420746f6b656e0000000000000000000000000000000000602082015250565b7f4552433732313a20617070726f76616c20746f2063757272656e74206f776e6560008201527f7200000000000000000000000000000000000000000000000000000000000000602082015250565b7f4552433732313a207472616e736665722063616c6c6572206973206e6f74206f60008201527f776e6572206e6f7220617070726f766564000000000000000000000000000000602082015250565b7f455243373231456e756d657261626c653a20676c6f62616c20696e646578206f60008201527f7574206f6620626f756e64730000000000000000000000000000000000000000602082015250565b613bdf81613390565b8114613bea57600080fd5b50565b613bf6816133a2565b8114613c0157600080fd5b50565b613c0d816133ae565b8114613c1857600080fd5b50565b613c24816133fa565b8114613c2f57600080fd5b5056fea264697066735822122058302ed5c802f4c200b09d1986b9297cdaa099ae393aebc7279d7e6a47e020b064736f6c63430008040033",
    "linkReferences": {},
    "deployedLinkReferences": {}
}